:020000040800F2
:100000000050002081460008F1120008F712000895
:10001000FD12000803130008091300080000000087
:100020000000000000000000000000000F130008A6
:100030001B130008000000002713000833130008FA
:10004000C9460008C9460008C9460008C946000854
:10005000C9460008C9460008C9460008C946000844
:10006000C9460008C9460008C9460008C946000834
:10007000C9460008C9460008C9460008C946000824
:10008000C9460008C9460008C9460008C946000814
:10009000C9460008C9460008C9460008C946000804
:1000A000C9460008C9460008C9460008C9460008F4
:1000B000C9460008C9460008C9460008C9460008E4
:1000C000C9460008C9460008C9460008C9460008D4
:1000D000C946000841130008C9460008C94600087F
:1000E000C9460008C9460008C946000800000000CB
:1000F0000000000000000000000000000000000000
:0C01000000000000000000005FF808F1A3
:1001100010B5054C237833B9044B13B10448AFF341
:1001200000800123237010BD80000020000000002B
:10013000884F000808B5034B1BB103490348AFF3D0
:10014000008008BD0000000084000020884F0008E7
:1001500081F0004102E000BF83F0004330B54FEA78
:1001600041044FEA430594EA050F08BF90EA020FE5
:100170001FBF54EA000C55EA020C7FEA645C7FEA78
:10018000655C00F0E2804FEA5454D4EB5555B8BF9B
:100190006D420CDD2C4480EA020281EA030382EA0C
:1001A000000083EA010180EA020281EA0303362D9E
:1001B00088BF30BD11F0004F4FEA01314FF4801C71
:1001C0004CEA113102D0404261EB410113F0004F83
:1001D0004FEA03334CEA133302D0524263EB43033A
:1001E00094EA050F00F0A780A4F10104D5F1200ED8
:1001F0000DDB02FA0EFC22FA05F2801841F1000133
:1002000003FA0EF2801843FA05F359410EE0A5F106
:1002100020050EF1200E012A03FA0EFC28BF4CF037
:10022000020C43FA05F3C01851EBE37101F00045ED
:1002300007D54FF0000EDCF1000C7EEB00006EEBFA
:100240000101B1F5801F1BD3B1F5001F0CD3490884
:100250005FEA30004FEA3C0C04F101044FEA4452DB
:1002600012F5800F80F09A80BCF1004F08BF5FEA62
:10027000500C50F1000041EB045141EA050130BD42
:100280005FEA4C0C404141EB010111F4801FA4F1E5
:100290000104E9D191F0000F04BF01460020B1FA3A
:1002A00081F308BF2033A3F10B03B3F120020CDA72
:1002B0000C3208DD02F1140CC2F10C0201FA0CF050
:1002C00021FA02F10CE002F11402D8BFC2F1200CB5
:1002D00001FA02F120FA0CFCDCBF41EA0C0190406B
:1002E000E41AA2BF01EB0451294330BD6FEA0404B4
:1002F0001F3C1CDA0C340EDC04F11404C4F120029F
:1003000020FA04F001FA02F340EA030021FA04F3B0
:1003100045EA030130BDC4F10C04C4F1200220FA07
:1003200002F001FA04F340EA0300294630BD21FA45
:1003300004F0294630BD94F0000F83F4801306BF0B
:1003400081F480110134013D4EE77FEA645C18BFFF
:100350007FEA655C29D094EA050F08BF90EA020F96
:1003600005D054EA000C04BF1946104630BD91EA8E
:10037000030F1EBF0021002030BD5FEA545C05D191
:100380004000494128BF41F0004130BD14F58004D0
:100390003CBF01F5801130BD01F0004545F0FE4144
:1003A00041F470014FF0000030BD7FEA645C1ABF79
:1003B000194610467FEA655C1CBF0B46024650EAB0
:1003C000013406BF52EA033591EA030F41F40021DC
:1003D00030BD00BF90F0000F04BF0021704730B562
:1003E0004FF4806404F132044FF000054FF0000137
:1003F00050E700BF90F0000F04BF0021704730B5F8
:100400004FF4806404F1320410F0004548BF4042CC
:100410004FF000013EE700BF42004FEAE2014FEA21
:1004200031014FEA02701FBF12F07F4393F07F4FFC
:1004300081F06051704792F0000F14BF93F07F4F2E
:10044000704730B54FF4607401F0004521F0004171
:1004500020E700BF50EA010208BF704730B54FF0F7
:1004600000050AE050EA010208BF704730B511F0FC
:10047000004502D5404261EB41014FF4806404F134
:1004800032045FEA915C3FF4DCAE4FF003025FEAB6
:10049000DC0C18BF03325FEADC0C18BF033202EB3E
:1004A000DC02C2F1200300FA03FC20FA02F001FA98
:1004B00003FE40EA0E0021FA02F11444C1E600BF37
:1004C00070B54FF0FF0C4CF4E06C1CEA11541DBFEA
:1004D0001CEA135594EA0C0F95EA0C0F00F0DEF8B5
:1004E0002C4481EA030621EA4C5123EA4C5350EA9A
:1004F000013518BF52EA033541F4801143F48013EB
:1005000038D0A0FB02CE4FF00005E1FB02E506F07B
:100510000042E0FB03E54FF00006E1FB03569CF0D0
:10052000000F18BF4EF0010EA4F1FF04B6F5007FD6
:1005300064F5407404D25FEA4E0E6D4146EB060648
:1005400042EAC62141EA55514FEAC52040EA5E50D1
:100550004FEACE2EB4F1FD0C88BFBCF5E06F1ED87B
:10056000BEF1004F08BF5FEA500E50F1000041EBB2
:10057000045170BD06F0004646EA010140EA02005F
:1005800081EA0301B4EB5C04C2BFD4EB0C0541EA81
:10059000045170BD41F480114FF0000E013C00F396
:1005A000AB8014F1360FDEBF002001F0004170BDBA
:1005B000C4F10004203C35DA0C341BDC04F11404D3
:1005C000C4F1200500FA05F320FA04F001FA05F25F
:1005D00040EA020001F0004221F0004110EBD3702C
:1005E00021FA04F642EB06015EEA430E08BF20EA58
:1005F000D37070BDC4F10C04C4F1200500FA04F3FB
:1006000020FA05F001FA04F240EA020001F000418C
:1006100010EBD37041F100015EEA430E08BF20EAFF
:10062000D37070BDC4F1200500FA05F24EEA020E47
:1006300020FA04F301FA05F243EA020321FA04F076
:1006400001F0004121FA04F220EA020000EBD3702D
:100650005EEA430E08BF20EAD37070BD94F0000F2D
:100660000FD101F00046400041EB010111F4801F61
:1006700008BF013CF7D041EA060195F0000F18BF12
:10068000704703F00046520043EB030313F4801F4E
:1006900008BF013DF7D043EA0603704794EA0C0F08
:1006A0000CEA135518BF95EA0C0F0CD050EA41061E
:1006B00018BF52EA4306D1D181EA030101F000419B
:1006C0004FF0000070BD50EA410606BF10461946C3
:1006D00052EA430619D094EA0C0F02D150EA0136CF
:1006E00013D195EA0C0F05D152EA03361CBF104610
:1006F00019460AD181EA030101F0004141F0FE41AF
:1007000041F470014FF0000070BD41F0FE4141F432
:10071000780170BD70B54FF0FF0C4CF4E06C1CEA32
:1007200011541DBF1CEA135594EA0C0F95EA0C0FE7
:1007300000F0A7F8A4EB050481EA030E52EA0335A2
:100740004FEA013100F088804FEA03334FF08055C3
:1007500045EA131343EA12634FEA022245EA1115F0
:1007600045EA10654FEA00260EF000419D4208BFA1
:10077000964244F1FD0404F5407402D25B084FEA4E
:100780003202B61A65EB03055B084FEA32024FF4FA
:1007900080104FF4002CB6EB020E75EB030E22BF57
:1007A000B61A754640EA0C005B084FEA3202B6EB17
:1007B000020E75EB030E22BFB61A754640EA5C00C6
:1007C0005B084FEA3202B6EB020E75EB030E22BF56
:1007D000B61A754640EA9C005B084FEA3202B6EB57
:1007E000020E75EB030E22BFB61A754640EADC0016
:1007F00055EA060E18D04FEA051545EA16754FEA78
:1008000006164FEAC30343EA52734FEAC2025FEA95
:100810001C1CC0D111F4801F0BD141EA00014FF024
:1008200000004FF0004CB6E711F4801F04BF0143F5
:100830000020B4F1FD0C88BFBCF5E06F3FF6AFAE11
:10084000B5EB030C04BFB6EB020C5FEA500C50F1A1
:10085000000041EB045170BD0EF0004E4EEA113124
:1008600014EB5C04C2BFD4EB0C0541EA045170BD2B
:1008700041F480114FF0000E013C90E645EA060E6F
:100880008DE60CEA135594EA0C0F08BF95EA0C0F9D
:100890003FF43BAF94EA0C0F0AD150EA01347FF4E5
:1008A00034AF95EA0C0F7FF425AF104619462CE7BC
:1008B00095EA0C0F06D152EA03353FF4FDAE10461F
:1008C000194622E750EA410618BF52EA43067FF470
:1008D000C5AE50EA41047FF40DAF52EA43057FF400
:1008E000EBAE12E74A0011D212F5001211D20DD56B
:1008F0006FF47873B3EB62520ED44FEAC12343F026
:10090000004343EA505323FA02F070474FF00000CF
:10091000704750EA013002D14FF0FF3070474FF07E
:100920000000704780B588B000AF07F110030022C7
:100930001A605A609A60DA60244A244B9B6943F03B
:1009400020039361214B9B6903F02003FB60FB684C
:100950001E4A1E4B9B6943F0040393611B4B9B692A
:1009600003F00403BB60BB68184A184B9B6943F053
:1009700008039361154B9B6903F008037B607B6858
:10098000002241F20401124801F06FFA41F204031F
:100990003B6101237B610023BB610223FB6107F103
:1009A000100319460A4801F0EFF84FF400633B6169
:1009B00000237B610023BB6107F110031946044843
:1009C00001F0E2F800BF2037BD4680BD00100240B4
:1009D0000008014080B500AF124B134A1A60114B5A
:1009E000124A5A600F4B00229A600E4B0022DA60C6
:1009F0000C4B4FF480421A610A4B00225A61094B9A
:100A000000229A61074B0022DA61064B00221A622B
:100A1000044801F043FA0346002B01D000F094F99A
:100A200000BF80BDB804002000540040801A0600BA
:100A300080B588B000AF786007F1100300221A601B
:100A40005A609A60DA607B681B68154A934223D12A
:100A5000144A144B9B6943F008039361114B9B6943
:100A600003F00803FB60FB68C0233B6112237B613A
:100A70000323FB6107F1100319460B4801F084F8CA
:100A8000084A084BDB6943F40013D361054BDB696B
:100A900003F40013BB60BB6800BF2037BD4680BDB8
:100AA0000054004000100240000C01400000000013
:100AB00090B587B000AF00F021FE00F0F7F8FFF727
:100AC00031FFFFF787FF00F09BFD00F0C5FC00F051
:100AD00073FC694802F0BAFB00224FF4805167486A
:100AE00001F0C3F900F034F90421654802F050FC2C
:100AF00007F1120301221946624803F0B0F9624B74
:100B00003C460FCB07C4238002341B0C2370012208
:100B10004FF48051594801F0A8F9574B1B68002247
:100B20005A6200BF544B1B685B6A092BFAD900223A
:100B30004FF48051514801F098F900F037FE024619
:100B4000524B1A6000BF4FF400614C4801F076F937
:100B50000346002B08D14D4B1B6803F10A0400F03B
:100B600025FE03469C42EED8434B1B685B6A484A0D
:100B7000136000F01BFE0246444B1A6000BF4FF4A6
:100B800000613E4801F05AF90346002B08D03F4B64
:100B90001B6803F1320400F009FE03469C42EED8C4
:100BA000354B1B685B6A3B4A13603A4B1A68384BFB
:100BB0001B68D31A1846FFF70DFC2DA3D3E90023B9
:100BC000FFF77EFC03460C46184621464FF0000214
:100BD0004FF08043FFF79EFD03460C461846214622
:100BE000FFF780FE0346FB740021002000F018FA96
:100BF00001222949294800F0A9FAFB7C1A46284914
:100C0000284803F095FD1E21002000F009FA01227A
:100C10002549244800F09AFA00F05EF9322000F0ED
:100C2000CFFDFB7C132B3FF672AF4FF47A737B61E1
:100C300010E0134B1B687A69DA627B69104AD36053
:100C40000F4B1B6864229A63642000F0B9FD7B6936
:100C500001337B617B6940F24B429342E9DD084BF3
:100C60001B6800229A63642000F0AAFD4FE700BFD2
:100C70009CC420B07268A13F2005002000080140FC
:100C800068050020B0050020B44F00080C050020C6
:100C90009C000020A000002000000020A04F0008C1
:100CA000AC4F0008100500200800002080B590B06F
:100CB00000AF07F1180328220021184603F030FD89
:100CC0003B1D00221A605A609A60DA601A610123A3
:100CD000BB614FF48033FB6100233B620123BB62A5
:100CE00002237B634FF48033BB634FF4E013FB6359
:100CF00007F11803184601F03DFE0346002B01D012
:100D000000F022F80F237B600223BB600023FB600E
:100D10004FF480633B6100237B613B1D0221184639
:100D200002F0A8F80346002B01D000F00DF800BF38
:100D30004037BD4680BD80B483B000AF786000BF4F
:100D40000C37BD4680BC704780B400AF72B6FEE77A
:100D500080B582B000AF00F01FFA44F62063012294
:100D600078215B4801F0D0FA0346002B01D0002324
:100D7000A9E040F6C4137B6002E07B68013B7B6026
:100D80007B68002BF9D1AE220021782000F060FAB8
:100D900020220021782000F05BFA10220021782028
:100DA00000F056FAB0220021782000F051FAC82253
:100DB0000021782000F04CFA00220021782000F079
:100DC00047FA10220021782000F042FA4022002148
:100DD000782000F03DFA81220021782000F038FAD6
:100DE000FF220021782000F033FAA1220021782090
:100DF00000F02EFAA6220021782000F029FAA8227D
:100E00000021782000F024FA3F220021782000F011
:100E10001FFAA4220021782000F01AFAD322002120
:100E2000782000F015FA00220021782000F010FA56
:100E3000D5220021782000F00BFAF0220021782042
:100E400000F006FAD9220021782000F001FA2222CF
:100E50000021782000F0FCF9DA220021782000F04F
:100E6000F7F912220021782000F0F2F9DB220021AC
:100E7000782000F0EDF920220021782000F0E8F938
:100E80008D220021782000F0E3F91422002178203F
:100E900000F0DEF9AF220021782000F0D9F92E22EF
:100EA0000021782000F0D4F9002000F043F800F091
:100EB00013F8084B00221A80064B00225A80054B7B
:100EC00001225A71012318460837BD4680BD00BF74
:100ED000B8040020A404002080B582B000AF002335
:100EE000FB711DE0FB79503BDBB21A4600217820F4
:100EF00000F0AEF900220021782000F0A9F91022BC
:100F00000021782000F0A4F9FB79DB01084A1A449B
:100F100080234021782000F053F9FB790133FB71E5
:100F2000FB79072BDED900BF0837BD4680BD00BF67
:100F3000A400002080B582B000AF0346FB71FB79AE
:100F4000002B01D1002300E0FF234FF480621946FB
:100F5000034803F0E5FB00BF0837BD4680BD00BF76
:100F6000A400002080B483B000AF0346FB800B4692
:100F7000BB801346FB70FB887F2B48D8BB883F2B78
:100F800045D8254B1B79002B06D0FB78002B0CBFD6
:100F900001230023DBB2FB70FB78012B1AD1FA8806
:100FA000BB88DB0898B20346DB011344F98802468C
:100FB000D2010A4419498A5C51B2BA8802F0070288
:100FC000012000FA02F252B20A4352B2D1B2134ADD
:100FD000D1541DE0FA88BB88DB0898B20346DB01D8
:100FE0001344F9880246D2010A440C498A5C51B282
:100FF000BA8802F00702012000FA02F252B2D2438C
:1010000052B20A4052B2D1B2044AD15400E000BFF9
:101010000C37BD4680BC7047A4040020A40000200B
:1010200080B483B000AF03460A46FB801346BB8002
:10103000054AFB881380044ABB88538000BF0C37E5
:10104000BD4680BC704700BFA404002080B586B0B8
:1010500000AF03463960FB711346BB713A4B1B88E6
:101060001A463B681B7813447F2B07DC364B5B88A2
:101070001A463B685B7813443F2B01DD00235EE09A
:1010800000237B614BE03B685A68FB79203B396861
:10109000497801FB03F319467B690B445B00134459
:1010A0001B88FB6000233B6130E0FA683B6902FA71
:1010B00003F303F40043002B10D0234B1A883B6941
:1010C0009BB2134498B2204B5A887B699BB213445D
:1010D0009BB2BA791946FFF745FF14E01A4B1A88FC
:1010E0003B699BB2134498B2174B5A887B699BB2F9
:1010F000134499B2BB79002B0CBF01230023DBB250
:101100001A46FFF72FFF3B6901333B613B681B78B1
:101110001A463B699A42C8D87B6901337B613B68B8
:101120005B781A467B699A42ADD8074B1A883B68B0
:101130001B789BB213449AB2034B1A80FB79184672
:101140001837BD4680BD00BFA404002080B584B020
:1011500000AFF860B9601346FB7112E0FB681B78C2
:10116000FA79B9681846FFF771FF03461A46FB681B
:101170001B789A4202D0FB681B7808E0FB680133B9
:10118000FB60FB681B78002BE8D1FB681B781846D6
:101190001037BD4680BD000080B483B000AF074B60
:1011A0007B6002E07B68013B7B607B68002BF9D1B0
:1011B00000BF0C37BD4680BC704700BF90D0030015
:1011C00090B5C7B002AF0446084639460A601946D2
:1011D000FB1D22461A70BB1D02461A703B1D0A46B3
:1011E0001A8007F10C03BA1D12781A70002387F8D1
:1011F0000F3110E097F80F31013397F80F2139467E
:1012000009680A44117807F10C02D15497F80F319C
:10121000013387F80F3197F80F319BB23A1D1288CE
:101220009A42E7D8FB1D1B7899B23B1D1B880133FE
:1012300098B207F10C020A2300930346034800F01A
:1012400065FF00BF07F58A77BD4690BDB804002052
:1012500080B586B002AF0346FB710B46BB711346E7
:101260007B71BB793B737B797B73FB7999B207F117
:101270000C020A2300930223034800F047FF00BF3B
:101280001037BD4680BD00BFB804002080B485B0D3
:1012900000AF154A144B9B6943F001039361124B55
:1012A0009B6903F00103BB60BB680F4A0E4BDB690F
:1012B00043F08053D3610C4BDB6903F080537B60B8
:1012C0007B680A4B5B68FB60FB6823F0E063FB60B4
:1012D000FB6843F00073FB60044AFB68536000BF87
:1012E0001437BD4680BC704700100240000001402A
:1012F00080B400AFFEE780B400AFFEE780B400AF7B
:10130000FEE780B400AFFEE780B400AFFEE780B434
:1013100000AF00BFBD4680BC704780B400AF00BFC7
:10132000BD4680BC704780B400AF00BFBD4680BCE6
:10133000704780B500AF00F027FA00BF80BD000005
:1013400080B500AF024802F0BBFD00BF80BD00BF0A
:10135000B005002080B584B000AF7860114B1B68E9
:10136000002B02D10F4B104A1A600E4B1B68FB601A
:101370000C4B1A687B6813446A46934207D903F002
:10138000A5F902460C2313604FF0FF3306E0054B2E
:101390001A687B681344034A1360FB6818461037C9
:1013A000BD4680BDAC040020FC05002080B400AF29
:1013B00000BFBD4680BC704780B586B000AF07F166
:1013C000080300221A605A609A60DA603B460022E5
:1013D0001A605A601E4B1F4A1A601D4B47225A6002
:1013E0001B4B00229A601A4B4FF6FF72DA60184BC3
:1013F00000221A61164B00225A61154B00229A6195
:10140000134801F0D3FE0346002B01D0FFF79CFCEC
:101410004FF48053BB6007F1080319460C4802F0F3
:1014200017F90346002B01D0FFF78EFC00233B6029
:1014300000237B603B461946054802F065FC0346E5
:10144000002B01D0FFF780FC00BF1837BD4680BDE0
:1014500020050020002C014080B58EB000AF07F1C0
:10146000280300221A605A609A60DA6007F12003AC
:1014700000221A605A603B1D00221A605A609A606E
:10148000DA601A615A619A612C4B4FF080421A60FF
:101490002A4B7F225A60294B00229A60274B142244
:1014A000DA60264B00221A61244B00229A612348FD
:1014B00001F07CFE0346002B01D0FFF745FC4FF402
:1014C0008053BB6207F1280319461C4802F0C0F89C
:1014D0000346002B01D0FFF737FC184801F000FF4E
:1014E0000346002B01D0FFF72FFC00233B620023B3
:1014F0007B6207F120031946104802F005FC034601
:10150000002B01D0FFF720FC60237B600023BB6031
:101510000023FB6000237B613B1D04221946074822
:1015200001F0D8FF0346002B01D0FFF70DFC034864
:1015300000F036F800BF3837BD4680BD6805002092
:1015400080B485B000AF78607B681B68124A934214
:101550000CD1124A114B9B6943F4006393610F4B0A
:101560009B6903F40063FB60FB6810E07B681B6809
:10157000B3F1804F0BD1094A084BDB6943F00103FB
:10158000D361064BDB6903F00103BB60BB6800BF9E
:101590001437BD4680BC7047002C0140001002404B
:1015A00080B588B000AF786007F1100300221A60A0
:1015B0005A609A60DA607B681B68B3F1804F17D17C
:1015C0000D4A0D4B9B6943F0040393610A4B9B69E1
:1015D00003F00403FB60FB6802233B6102237B6191
:1015E0000223FB6107F110031946044800F0CCFA0E
:1015F00000BF2037BD4680BD0010024000080140FA
:1016000080B500AF114B124A1A60104B4FF41652BE
:101610005A600E4B00229A600C4B0022DA600B4B92
:1016200000221A61094B0C225A61084B00229A6170
:10163000064B0022DA61054802F0C4FB0346002B8A
:1016400001D0FFF781FB00BF80BD00BFB0050020C7
:101650000038014080B588B000AF786007F1100312
:1016600000221A605A609A60DA607B681B68204A20
:10167000934239D11F4A1F4B9B6943F480439361C6
:101680001C4B9B6903F48043FB60FB68194A194BB0
:101690009B6943F004039361164B9B6903F00403B9
:1016A000BB60BB684FF400733B6102237B61032383
:1016B000FB6107F1100319460F4800F065FA4FF47B
:1016C00080633B6100237B610023BB6107F1100352
:1016D0001946094800F058FA00220021252000F0A0
:1016E00066F9252000F07FF900BF2037BD4680BD98
:1016F00000380140001002400008014080B500AFF2
:10170000084A084B1B6843F010031360032000F0E5
:1017100043F90F2000F008F8FFF7B8FD0023184642
:1017200080BD00BF0020024080B582B000AF78606D
:10173000124B1A68124B1B7819464FF47A73B3FB9D
:10174000F1F3B2FBF3F3184600F05BF90346002B0C
:1017500001D001230EE07B680F2B0AD800227968A4
:101760004FF0FF3000F023F9064A7B681360002336
:1017700000E0012318460837BD4680BD1000002058
:10178000180000201400002080B400AF054B1B7827
:101790001A46054B1B681344034A136000BFBD463D
:1017A00080BC704718000020F405002080B400AF12
:1017B000024B1B681846BD4680BC7047F4050020EC
:1017C00080B584B000AF7860FFF7F0FFB8607B6849
:1017D000FB60FB68B3F1FF3F05D0094B1B781A464D
:1017E000FB681344FB6000BFFFF7E0FF0246BB68E5
:1017F000D21AFB689A42F7D300BF1037BD4680BDAE
:101800001800002080B485B000AF78607B6803F0DA
:101810000703FB600C4BDB68BB60BA684FF6FF0345
:101820001340BB60FB681A02BB68134343F0BF63FD
:1018300043F40033BB60044ABB68D36000BF143775
:10184000BD4680BC704700BF00ED00E080B400AF33
:10185000044BDB681B0A03F007031846BD4680BC37
:10186000704700BF00ED00E080B483B000AF0346D6
:10187000FB7197F90730002B0BDB084997F907300C
:101880005B09FA7902F01F02012000FA02F241F826
:10189000232000BF0C37BD4680BC704700E100E04C
:1018A00080B483B000AF03463960FB7197F907300D
:1018B000002B0ADB0D4997F907303A68D2B21201C2
:1018C000D2B20B4483F800230AE00949FB7903F004
:1018D0000F03043B3A68D2B21201D2B20B441A761B
:1018E00000BF0C37BD4680BC704700BF00E100E080
:1018F00000ED00E080B489B000AFF860B9607A60B4
:10190000FB6803F00703FB61FB69C3F10703042BCA
:1019100028BF0423BB61FB690433062B02D9FB6992
:10192000033B00E000237B610122BB6902FA03F361
:101930005A1EBB681A407B699A4001217B6901FAF3
:1019400003F3591E7B680B40134318462437BD46EA
:1019500080BC704780B582B000AF78607B68013B87
:10196000B3F1807F01D301230FE00A4A7B68013B7A
:1019700053600F214FF0FF30FFF792FF054B00221D
:101980009A60044B07221A60002318460837BD46A8
:1019900080BD00BF10E000E080B582B000AF78608D
:1019A0007868FFF72FFF00BF0837BD4680BD80B5C0
:1019B00086B000AF0346B9607A60FB7300237B6199
:1019C000FFF744FF78617A68B9687869FFF792FF9A
:1019D000024697F90F3011461846FFF761FF00BF26
:1019E0001837BD4680BD80B582B000AF0346FB719D
:1019F00097F907301846FFF737FF00BF0837BD4695
:101A000080BD80B582B000AF78607868FFF7A2FF34
:101A1000034618460837BD4680BD80B485B000AF88
:101A200078600023FB737B6893F82130022B08D089
:101A30007B6804229A637B68002283F820200123BC
:101A400020E07B681B687A681268126822F00E0238
:101A50001A607B681B687A681268126822F00102BB
:101A60001A607B68DB6B7A68126C012101FA02F262
:101A70005A607B68012283F821207B68002283F86A
:101A80002020FB7B18461437BD4680BC7047000001
:101A900080B584B000AF78600023FB737B6893F857
:101AA0002130022B05D07B6804229A630123FB734B
:101AB00057E07B681B687A681268126822F00E0291
:101AC0001A607B681B687A681268126822F001024B
:101AD0001A60264A7B681B681946254B99422ED00E
:101AE0007B681B681946234B994226D07B681B688C
:101AF0001946214B99421DD07B681B6819461F4B24
:101B0000994214D07B681B6819461D4B99420BD033
:101B10007B681B6819461B4B994202D14FF4801316
:101B20000EE04FF080730BE04FF4803308E04FF489
:101B3000805305E04FF4807302E0102300E001239E
:101B400053607B68012283F821207B68002283F8A0
:101B500020207B685B6B002B03D07B685B6B786815
:101B60009847FB7B18461037BD4680BD00000240F9
:101B7000080002401C0002403000024044000240C5
:101B8000580002406C00024080B48BB000AF786017
:101B9000396000237B6200233B6227E101227B6ADC
:101BA00002FA03F3FB613B681A68FB691340BB61EF
:101BB000BA69FB699A4240F016813B685B68122B58
:101BC00034D0122B0DD8022B2BD0022B04D8002B93
:101BD00031D0012B1CD048E0032B43D0112B1BD05C
:101BE00043E0894A934226D0874A934206D8874ADF
:101BF000934220D0864A93421DD036E0854A9342D4
:101C000019D0854A934216D0844A934213D02CE0CF
:101C10003B68DB683B6228E03B68DB6804333B627F
:101C200023E03B68DB6808333B621EE03B68DB680F
:101C30000C333B6219E03B689B68002B02D1042304
:101C40003B6212E03B689B68012B05D108233B6295
:101C50007B68FA691A6108E008233B627B68FA69CD
:101C60005A6102E000233B6200BFBB69FF2B01D831
:101C70007B6801E07B6804337B61BB69FF2B02D882
:101C80007B6A9B0002E07B6A083B9B003B617B69AF
:101C90001A680F213B6901FA03F3DB431A40396AE2
:101CA0003B6901FA03F31A437B691A603B685B687E
:101CB00003F08053002B00F09680594A584B9B69E3
:101CC00043F001039361564B9B6903F00103BB6032
:101CD000BB68544A7B6A9B08023352F82330FB608E
:101CE0007B6A03F003039B000F2202FA03F3DB433A
:101CF000FA681340FB607B684B4A934213D07B68C1
:101D00004A4A93420DD07B68494A934207D07B6888
:101D1000484A934201D1032306E0042304E002234E
:101D200002E0012300E000237A6A02F0030292003D
:101D30009340FA681343FB603A497B6A9B0802337D
:101D4000FA6841F823203B685B6803F48033002B7A
:101D500006D03949384B1A68BB6913430B6006E05B
:101D60003549354B1A68BB69DB4313400B603B6850
:101D70005B6803F40033002B06D02F492E4B5A68C2
:101D8000BB6913434B6006E02B492B4B5A68BB6978
:101D9000DB4313404B603B685B6803F48013002B0C
:101DA00006D02549244B9A68BB6913438B6006E033
:101DB0002149214B9A68BB69DB4313408B603B6828
:101DC0005B6803F40013002B06D01B491A4BDA683A
:101DD000BB691343CB6006E01749174BDA68BB6950
:101DE000DB431340CB607B6A01337B623B681A683C
:101DF0007B6A22FA03F3002B7FF4D0AE00BF2C37AE
:101E0000BD4680BC704700BF0000211000001110CB
:101E100000001210000031100000321000002210EB
:101E2000001002400000014000080140000C014089
:101E300000100140001401400004014080B485B04E
:101E400000AF78600B467B807B689A687B88134084
:101E5000002B02D00123FB7301E00023FB73FB7B0B
:101E600018461437BD4680BC704780B483B000AFBD
:101E700078600B467B8013467B707B78002B03D009
:101E80007A887B681A6103E07B881A047B681A6190
:101E900000BF0C37BD4680BC7047000090B585B0D0
:101EA00000AF78607B68002B01D101231FE17B68C4
:101EB00093F83D30DBB2002B06D17B68002283F81B
:101EC0003C207868FEF7B4FD7B68242283F83D202F
:101ED0007B681B687A681268126822F001021A6037
:101EE0007B681B687A681268126842F400421A60C4
:101EF0007B681B687A681268126822F400421A60D4
:101F000001F00EF9F8607B685B687B4A934207D862
:101F1000FB687A4A934294BF01230023DBB206E0B8
:101F2000FB68774A934294BF01230023DBB2002B66
:101F300001D00123DBE0FB68724AA2FB03239B0C68
:101F4000BB607B681B687A681268526822F03F01A8
:101F5000BA680A435A607B681A687B681B681B6A08
:101F600023F03F017B685B686348834202D8BB680B
:101F7000013309E0BB684FF4967000FB03F362483D
:101F8000A0FB03039B0901330B4313627B681868B2
:101F90007B681B68DB6923F44F4222F0FF027B68F9
:101FA0005B6855498B420DD8FB68591E7B685B689E
:101FB0005B00B1FBF3F30133C3F30B03042B38BF16
:101FC00004234FE07B689B68002B11D1FB685C1EEB
:101FD0007B6859680B465B000B44B4FBF3F3013399
:101FE000C3F30B03002B0CBF01230023DBB212E071
:101FF000FB685C1E7B6859680B469B000B4499008C
:102000000B44B4FBF3F30133C3F30B03002B0CBFFE
:1020100001230023DBB2002B01D0012322E07B68E7
:102020009B68002B0ED1FB685C1E7B6859680B46D1
:102030005B000B44B4FBF3F30133C3F30B0343F432
:1020400000430FE0FB685C1E7B6859680B469B00F1
:102050000B4499000B44B4FBF3F30133C3F30B03BC
:1020600043F440431343C3617B681B687A6812687A
:10207000126822F0C0017A68D0697A68126A024355
:102080000A431A607B681A687B681B689B6823F4A4
:10209000034323F0FF03796808697968C96801433D
:1020A0000B4393607B681B687A681268D26822F0E1
:1020B000FF017A6850697A68926902430A43DA60DC
:1020C0007B681B687A681268126842F001021A6025
:1020D0007B6800221A647B68202283F83D207B689D
:1020E00000221A637B68002283F83E2000231846F2
:1020F0001437BD4690BD00BFA08601007F841E003E
:10210000FF083D0083DE1B43D34D621080B588B0CD
:1021100002AFF8607A601A460B467B8113463B811A
:10212000FFF744FB7861FB6893F83D30DBB2202B6E
:1021300040F0E0807B690093192301227049F86820
:1021400000F092FA0346002B01D00223D3E0FB6893
:1021500093F83C30012B01D10223CCE0FB68012233
:1021600083F83C20FB681B681B6803F00103012B0C
:1021700007D0FB681B68FA681268126842F0010217
:102180001A60FB681B68FA681268126822F4006221
:102190001A60FB68212283F83D20FB68102283F837
:1021A0003E20FB6800221A64FB687A685A62FB686A
:1021B0003A895A85FB685B8D9AB2FB681A85FB6881
:1021C000504ADA6279897B693A6AF86800F0CAF99C
:1021D0000346002B01D001238DE000233B61FB6807
:1021E0001B685B693B61FB681B689B693B613B69E2
:1021F00066E07A69396AF86800F00CFB0346002B48
:102200000DD0FB681B6C042B07D1FB681B68FA68B8
:102210001268126842F400721A6001236BE0FB68D6
:102220001B68FA68526A12781A61FB685B6A5A1C6A
:10223000FB685A62FB685B8D9BB2013B9AB2FB68FC
:102240005A85FB681B8D013B9AB2FB681A85FB68B7
:102250001B685B6903F00403042B1BD1FB681B8D17
:10226000002B17D0FB681B68FA68526A12781A6153
:10227000FB685B6A5A1CFB685A62FB685B8D9BB209
:10228000013B9AB2FB685A85FB681B8D013B9AB2F1
:10229000FB681A857A69396AF86800F0FCFA034627
:1022A000002B0DD0FB681B6C042B07D1FB681B684F
:1022B000FA681268126842F400721A6001231AE088
:1022C000FB681B8D002B94D1FB681B68FA681268B1
:1022D000126842F400721A60FB68202283F83D20E5
:1022E000FB68002283F83E20FB68002283F83C2034
:1022F000002300E0022318461837BD4680BD00BF0A
:10230000020010000000FFFF80B58AB002AFF86045
:102310007A603B600B467B81FFF748FAF861012346
:10232000BB61FB6893F83D30DBB2202B40F010819D
:10233000FB690093192301228849F86800F094F999
:102340000346002B01D0022303E1FB6893F83C30E5
:10235000012B01D10223FCE0FB68012283F83C2021
:10236000FB681B681B6803F00103012B07D0FB68A7
:102370001B68FA681268126842F001021A60FB6872
:102380001B68FA681268126822F400621A60FB681F
:10239000242283F83D20FB6800221A64FB68704AFF
:1023A000DA62FB681B68FA681268126842F480728D
:1023B0001A60FB6900933B6800224FF00111F86836
:1023C00000F052F90346002B0DD0FB681B681B6818
:1023D00003F48073B3F5807F03D1FB684FF4007280
:1023E0001A640323B5E0FB681B687A89D2B202F055
:1023F000FE021A61FFF7DAF9F861FB681B685B6996
:1024000003F00203022B0CBF01230023DBB2FB7598
:10241000FB681B685B6903F48063B3F5806F0CBFD6
:1024200001230023DBB2BB7525E0FFF7BFF90246AD
:10243000FB69D21A3B689A4202D83B68002B03D151
:10244000FB68A02283F83D20FB681B685B6903F0F2
:102450000203022B0CBF01230023DBB2FB75FB68D8
:102460001B685B6903F48063B3F5806F0CBF0123C5
:102470000023DBB2BB75FB6893F83D30DBB2A02BC9
:1024800005D0FB7D002B02D1BB7D002BCDD0FB689E
:10249000202283F83D20FB681B685B6903F0020380
:1024A000022B29D1FB681B68FA681268126842F493
:1024B00000721A6000233B61FB681B685B693B612B
:1024C000FB681B689B693B613B69FB6900931923AF
:1024D00001222249F86800F0C7F80346002B01D01A
:1024E000012336E0FB68202283F83D20FB680022B0
:1024F00083F83C2000232CE0FB681B68FA68126814
:10250000126842F400721A60FB681B686FF4806204
:102510005A61FB690093192301221049F86800F001
:10252000A3F80346002B01D0012312E0BB6901335D
:10253000BB61BA697B689A42FFF433AFFB68202223
:1025400083F83D20FB68002283F83C20012300E053
:10255000022318462037BD4680BD00BF0200100090
:102560000000FFFF80B588B002AFF8607A603B6082
:102570000B467B81FB68DB6A7B617B69082B06D09D
:102580007B69012B03D07B6913F5803F08D1FB6881
:102590001B68FA681268126842F480721A600BE0D5
:1025A000FB681B6B122B07D1FB681B68FA6812686B
:1025B000126842F480721A603B6800937B680022C4
:1025C0004FF00111F86800F04FF80346002B0DD0D2
:1025D000FB681B681B6803F48073B3F5807F03D12D
:1025E000FB684FF400721A64032334E0FB681B6934
:1025F000B3F5804F07D1FB681B687A89D2B202F02D
:10260000FE021A611BE0FB681B687A89D211D2B204
:1026100002F00602D2B262F00F02D2B21A613B6837
:102620007A680F49F86800F076F80346002B01D06D
:10263000012310E0FB681B687A89D2B21A613B68FB
:102640007A680849F86800F066F80346002B01D064
:10265000012300E0002318461837BD4680BD00BFA7
:10266000080001000200010080B584B000AFF860EE
:10267000B9603B601346FB7125E03B68B3F1FF3F57
:1026800021D0FFF793F80246BB69D21A3B689A4201
:1026900002D83B68002B16D1FB6800221A63FB6846
:1026A000202283F83D20FB68002283F83E20FB684F
:1026B0001B6C43F02002FB681A64FB68002283F85D
:1026C0003C20012323E0BB681B0CDBB2012B0DD1A6
:1026D000FB681B685B69DA43BB6813409BB2002B45
:1026E0000CBF01230023DBB21A460CE0FB681B6819
:1026F0009B69DA43BB6813409BB2002B0CBF0123DC
:102700000023DBB21A46FB799A42B6D00023184662
:102710001037BD4680BD80B584B000AFF860B960A9
:102720007A603B6051E0FB681B685B6903F480637F
:10273000B3F5806F23D1FB681B68FA6812681268D2
:1027400042F400721A60FB681B686FF480625A6181
:10275000FB6800221A63FB68202283F83D20FB6897
:10276000002283F83E20FB681B6C43F00402FB68E8
:102770001A64FB68002283F83C20012346E07B6852
:10278000B3F1FF3F21D0FFF711F802463B68D21AA0
:102790007B689A4202D87B68002B16D1FB68002226
:1027A0001A63FB68202283F83D20FB68002283F82F
:1027B0003E20FB681B6C43F02002FB681A64FB6838
:1027C000002283F83C20012320E0BB681B0CDBB215
:1027D000012B0CD1FB681B685B69DA43BB681340B3
:1027E0009BB2002B14BF01230023DBB20BE0FB687C
:1027F0001B689B69DA43BB6813409BB2002B14BF74
:1028000001230023DBB2002B8DD1002318461037A3
:10281000BD4680BD80B584B000AFF860B9607A6015
:102820002DE0F86800F078F80346002B01D0012372
:102830002DE0BB68B3F1FF3F21D0FEF7B7FF0246A2
:102840007B68D21ABB689A4202D8BB68002B16D1AB
:10285000FB6800221A63FB68202283F83D20FB6896
:10286000002283F83E20FB681B6C43F02002FB68CB
:102870001A64FB68002283F83C20012307E0FB6810
:102880001B685B6903F08003802BCAD100231846C4
:102890001037BD4680BD80B584B000AFF860B96028
:1028A0007A602DE0F86800F037F80346002B01D07D
:1028B00001232DE0BB68B3F1FF3F21D0FEF776FF87
:1028C00002467B68D21ABB689A4202D8BB68002BCA
:1028D00016D1FB6800221A63FB68202283F83D2092
:1028E000FB68002283F83E20FB681B6C43F020024B
:1028F000FB681A64FB68002283F83C20012307E090
:10290000FB681B685B6903F00403042BCAD1002336
:1029100018461037BD4680BD80B483B000AF7860E4
:102920007B681B685B6903F48063B3F5806F1BD120
:102930007B681B686FF480625A617B6800221A63AF
:102940007B68202283F83D207B68002283F83E20AC
:102950007B681B6C43F004027B681A647B6800226E
:1029600083F83C20012300E0002318460C37BD46C5
:1029700080BC704780B586B000AF78607B68002B64
:1029800001D101236CE27B681B6803F00103002B7B
:1029900000F08780924B5B6803F00C03042B0CD093
:1029A0008F4B5B6803F00C03082B12D18C4B5B68D8
:1029B00003F48033B3F5803F0BD1894B1B6803F4DC
:1029C0000033002B6CD07B685B68002B68D101233F
:1029D00046E27B685B68B3F5803F06D1804A804B56
:1029E0001B6843F4803313602EE07B685B68002B28
:1029F0000CD17B4A7A4B1B6823F480331360784AEE
:102A0000774B1B6823F4802313601DE07B685B68B1
:102A1000B3F5A02F0CD1724A714B1B6843F480238D
:102A200013606F4A6E4B1B6843F4803313600BE0F6
:102A30006B4A6B4B1B6823F480331360684A684B06
:102A40001B6823F4802313607B685B68002B13D022
:102A5000FEF7ACFE386108E0FEF7A8FE02463B69CF
:102A6000D31A642B01D90323FAE15D4B1B6803F4ED
:102A70000033002BF0D014E0FEF798FE386108E038
:102A8000FEF794FE02463B69D31A642B01D9032357
:102A9000E6E1534B1B6803F40033002BF0D100E058
:102AA00000BF7B681B6803F00203002B63D04C4B14
:102AB0005B6803F00C03002B0BD0494B5B6803F001
:102AC0000C03082B1CD1464B5B6803F48033002BAE
:102AD00016D1434B1B6803F00203002B05D07B6823
:102AE0001B69012B01D00123BAE13D493C4B1B6816
:102AF00023F0F8027B685B69DB0013430B603AE06C
:102B00007B681B69002B20D0364B01221A60FEF730
:102B10004DFE386108E0FEF749FE02463B69D31AD4
:102B2000022B01D903239BE12D4B1B6803F0020309
:102B3000002BF0D02A492A4B1B6823F0F8027B684F
:102B40005B69DB0013430B6015E0264B00221A6023
:102B5000FEF72CFE386108E0FEF728FE02463B69CE
:102B6000D31A022B01D903237AE11D4B1B6803F012
:102B70000203002BF0D17B681B6803F00803002BD5
:102B80003AD07B689B69002B19D0174B01221A6041
:102B9000FEF70CFE386108E0FEF708FE02463B69CE
:102BA000D31A022B01D903235AE10D4B5B6A03F0C0
:102BB0000203002BF0D0012000F0DAFA1CE00A4BEF
:102BC00000221A60FEF7F2FD38610FE0FEF7EEFD1D
:102BD00002463B69D31A022B08D9032340E100BF08
:102BE0000010024000004242800442429E4B5B6A59
:102BF00003F00203002BE9D17B681B6803F0040398
:102C0000002B00F0A6800023FB75974BDB6903F0D7
:102C10008053002B0DD1944A934BDB6943F08053D2
:102C2000D361914BDB6903F08053BB60BB68012328
:102C3000FB758E4B1B6803F48073002B18D18B4AF5
:102C40008A4B1B6843F480731360FEF7AFFD386155
:102C500008E0FEF7ABFD02463B69D31A642B01D9AD
:102C60000323FDE0814B1B6803F48073002BF0D03D
:102C70007B68DB68012B06D17B4A7B4B1B6A43F0E8
:102C8000010313622DE07B68DB68002B0CD1764AD0
:102C9000754B1B6A23F001031362734A724B1B6A64
:102CA00023F0040313621CE07B68DB68052B0CD166
:102CB0006D4A6D4B1B6A43F0040313626A4A6A4B08
:102CC0001B6A43F0010313620BE0674A664B1B6A01
:102CD00023F001031362644A634B1B6A23F004036D
:102CE00013627B68DB68002B15D0FEF75FFD38614F
:102CF0000AE0FEF75BFD02463B69D31A41F28832D7
:102D0000934201D90323ABE0574B1B6A03F0020344
:102D1000002BEED014E0FEF749FD38610AE0FEF723
:102D200045FD02463B69D31A41F28832934201D9EC
:102D3000032395E04C4B1B6A03F00203002BEED1FA
:102D4000FB7D012B05D1484A474BDB6923F08053BB
:102D5000D3617B68DB69002B00F08180424B5B68AC
:102D600003F00C03082B61D07B68DB69022B46D192
:102D70003F4B00221A60FEF719FD386108E0FEF7AC
:102D800015FD02463B69D31A022B01D9032367E0E4
:102D9000354B1B6803F00073002BF0D17B681B6A76
:102DA000B3F5803F08D130492F4B5B6823F40032E4
:102DB0007B689B6813434B602B482B4B5B6823F469
:102DC00074127B68196A7B685B6A0B431343436028
:102DD000274B01221A60FEF7E9FC386108E0FEF794
:102DE000E5FC02463B69D31A022B01D9032337E0E5
:102DF0001D4B1B6803F00073002BF0D02FE01C4B21
:102E000000221A60FEF7D2FC386108E0FEF7CEFC23
:102E100002463B69D31A022B01D9032320E0124B4F
:102E20001B6803F00073002BF0D118E07B68DB69AE
:102E3000012B01D1012313E00B4B5B68FB60FB68A6
:102E400003F480327B681B6A9A4206D1FB6803F464
:102E500070127B685B6A9A4201D0012300E0002374
:102E600018461837BD4680BD001002400070004073
:102E70006000424280B584B000AF786039607B6802
:102E8000002B01D10123D0E06A4B1B6803F007023D
:102E90003B689A4210D26749664B1B6823F00702D1
:102EA0003B6813430B60634B1B6803F007023B68EE
:102EB0009A4201D00123B8E07B681B6803F002034B
:102EC000002B20D07B681B6803F00403002B05D087
:102ED000594A594B5B6843F4E06353607B681B6855
:102EE00003F00803002B05D0534A534B5B6843F4AF
:102EF000605353605049504B5B6823F0F0027B688D
:102F00009B6813434B607B681B6803F00103002B35
:102F100040D07B685B68012B07D1474B1B6803F4EB
:102F20000033002B15D101237FE07B685B68022B07
:102F300007D1414B1B6803F00073002B09D101231B
:102F400073E03D4B1B6803F00203002B01D101230A
:102F50006BE03949384B5B6823F003027B685B68A0
:102F600013434B60FEF722FCF8600AE0FEF71EFCFC
:102F70000246FB68D31A41F28832934201D90323F7
:102F800053E02D4B5B6803F00C027B685B689B0091
:102F90009A42EBD1274B1B6803F007023B689A4229
:102FA00010D92449234B1B6823F007023B681343C5
:102FB0000B60204B1B6803F007023B689A4201D06C
:102FC000012332E07B681B6803F00403002B08D068
:102FD0001949194B5B6823F4E0627B68DB68134393
:102FE0004B607B681B6803F00803002B09D0124973
:102FF000114B5B6823F460527B681B69DB00134351
:103000004B6000F021F801460B4B5B681B0903F095
:103010000F030A4AD35C21FA03F3094A1360094BF0
:103020001B681846FEF780FB002318461037BD4684
:1030300080BD00BF002002400010024080700008E8
:10304000100000201400002090B48AB000AF2A4B7A
:103050003C1D0FCB84E80F00284B1B883B800023CE
:10306000FB610023BB6100237B6200237B610023A3
:103070003B62234B5B68FB61FB6903F00C03042B91
:1030800002D0082B03D02DE01E4B3B622DE0FB69E4
:103090009B0C03F00F0307F12802134413F8243CA0
:1030A0007B61FB6903F48033002B13D0144B5B6806
:1030B0005B0C03F0010307F12802134413F8283CCA
:1030C000BB617B690F4A02FB03F2BB69B2FBF3F3FE
:1030D0007B6204E07B690C4A02FB03F37B627B6A40
:1030E0003B6202E0074B3B6200BF3B6A1846283751
:1030F000BD4690BC704700BFC44F0008D44F0008C5
:103100000010024000127A0000093D0080B400AFB8
:10311000024B1B681846BD4680BC7047100000205B
:1031200080B500AFFFF7F2FF0146054B5B681B0A55
:1031300003F00703034AD35C21FA03F3184680BD6A
:10314000001002409070000880B500AFFFF7DEFF6E
:103150000146054B5B68DB0A03F00703034AD35CB7
:1031600021FA03F3184680BD001002409070000859
:1031700080B485B000AF78600A4B1B680A4AA2FB96
:1031800003235B0A7A6802FB03F3FB6000BFFB6862
:103190005A1EFA60002BF9D100BF1437BD4680BC1F
:1031A000704700BF10000020D34D621080B582B080
:1031B00000AF78607B68002B01D1012341E07B6880
:1031C00093F83D30DBB2002B06D17B68002283F8F8
:1031D0003C207868FEF7B4F97B68022283F83D2032
:1031E0007B681A687B6804331946104600F0E8FAD9
:1031F0007B68012283F846207B68012283F83E2009
:103200007B68012283F83F207B68012283F84020FD
:103210007B68012283F841207B68012283F84220E9
:103220007B68012283F843207B68012283F84420D5
:103230007B68012283F845207B68012283F83D20CA
:10324000002318460837BD4680BD000080B485B015
:1032500000AF78607B6893F83D30DBB2012B01D082
:10326000012332E07B68022283F83D207B681B68E3
:10327000184A93420ED07B681B68B3F1804F09D087
:103280007B681B68144A934204D07B681B68134A0E
:10329000934211D17B681B689B6803F00703FB60B6
:1032A000FB68062B10D07B681B687A68126812686E
:1032B00042F001021A6007E07B681B687A681268B6
:1032C000126842F001021A60002318461437BD4606
:1032D00080BC7047002C0140000400400008004002
:1032E00080B582B000AF78607B68002B01D10123EC
:1032F00041E07B6893F83D30DBB2002B06D17B6860
:10330000002283F83C20786800F039F87B680222BC
:1033100083F83D207B681A687B68043319461046A1
:1033200000F04EFA7B68012283F846207B68012278
:1033300083F83E207B68012283F83F207B680122CE
:1033400083F840207B68012283F841207B680122BA
:1033500083F842207B68012283F843207B680122A6
:1033600083F844207B68012283F845207B68012292
:1033700083F83D20002318460837BD4680BD80B441
:1033800083B000AF786000BF0C37BD4680BC70478B
:1033900080B584B000AF786039603B68002B09D1FC
:1033A0007B6893F83E30DBB2012B14BF012300236E
:1033B000DBB222E03B68042B09D17B6893F83F30F5
:1033C000DBB2012B14BF01230023DBB215E03B6805
:1033D000082B09D17B6893F84030DBB2012B14BF76
:1033E00001230023DBB208E07B6893F84130DBB2B5
:1033F000012B14BF01230023DBB2002B01D00123DA
:103400005EE03B68002B04D17B68022283F83E20FB
:1034100013E03B68042B04D17B68022283F83F2031
:103420000BE03B68082B04D17B68022283F8402024
:1034300003E07B68022283F841207B681B6801223D
:103440003968184600F03CFC7B681B681E4A9342B2
:1034500007D17B681B687A681268526C42F400429C
:103460005A647B681B68184A93420ED07B681B68BD
:10347000B3F1804F09D07B681B68144A934204D093
:103480007B681B68124A934211D17B681B689B685A
:1034900003F00703FB60FB68062B10D07B681B68FA
:1034A0007A681268126842F001021A6007E07B68CD
:1034B0001B687A681268126842F001021A600023E1
:1034C00018461037BD4680BD002C01400004004066
:1034D0000008004080B584B000AFF860B9607A6041
:1034E000FB6893F83C30012B01D10223ACE0FB6870
:1034F000012283F83C207B680C2B00F29F8001A204
:1035000052F823F0393500083D3600083D360008F2
:103510003D360008793500083D3600083D36000884
:103520003D360008BB3500083D3600083D36000832
:103530003D360008FB350008FB681B68B968184673
:1035400000F0A0F9FB681B68FA681268926942F003
:1035500008029A61FB681B68FA681268926922F097
:1035600004029A61FB681B68FA6812689169BA687C
:1035700012690A439A6162E0FB681B68B9681846E1
:1035800000F0E6F9FB681B68FA681268926942F479
:1035900000629A61FB681B68FA681268926922F4FB
:1035A00080629A61FB681B68FA6812689169BA6860
:1035B000126912020A439A6141E0FB681B68B9680C
:1035C000184600F02FFAFB681B68FA681268D26987
:1035D00042F00802DA61FB681B68FA681268D26977
:1035E00022F00402DA61FB681B68FA681268D1698C
:1035F000BA6812690A43DA6121E0FB681B68B9689E
:10360000184600F079FAFB681B68FA681268D269FC
:1036100042F40062DA61FB681B68FA681268D269DA
:1036200022F48062DA61FB681B68FA681268D1696B
:10363000BA68126912020A43DA6100E000BFFB684F
:10364000002283F83C20002318461037BD4680BD79
:1036500080B584B000AF786039607B6893F83C3007
:10366000012B01D10223A6E07B68012283F83C20D4
:103670007B68022283F83D207B681B689B68FB60A7
:10368000FB6823F07703FB60FB6823F47F43FB6058
:103690007B681B68FA689A603B681B68402B67D0A0
:1036A000402B0BD8102B73D0102B02D8002B6FD0CF
:1036B00078E0202B6CD0302B6AD073E0702B0DD0CB
:1036C000702B04D8502B33D0602B41D06AE0B3F577
:1036D000805F66D0B3F5005F17D063E07B68186841
:1036E0003B6899683B685A683B68DB6800F0C9FA38
:1036F0007B681B689B68FB60FB6843F07703FB609B
:103700007B681B68FA689A604CE07B6818683B68C5
:1037100099683B685A683B68DB6800F0B2FA7B68DE
:103720001B687A681268926842F480429A6039E0B5
:103730007B6818683B6859683B68DB681A4600F08C
:1037400029FA7B681B685021184600F080FA29E0AE
:103750007B6818683B6859683B68DB681A4600F06C
:1037600047FA7B681B686021184600F070FA19E080
:103770007B6818683B6859683B68DB681A4600F04C
:1037800009FA7B681B684021184600F060FA09E0DE
:103790007B681A683B681B681946104600F057FAA8
:1037A00000E000BF7B68012283F83D207B68002297
:1037B00083F83C20002318461037BD4680BD00002A
:1037C00080B485B000AF786039607B681B68FB60AF
:1037D0007B68294A93420BD07B68B3F1804F07D0B6
:1037E0007B68264A934203D07B68254A934208D1DE
:1037F000FB6823F07003FB603B685B68FA68134367
:10380000FB607B681C4A93420BD07B68B3F1804F0E
:1038100007D07B68194A934203D07B68184A9342C9
:1038200008D1FB6823F44073FB603B68DB68FA68EF
:103830001343FB60FB6823F080023B685B69134322
:10384000FB607B68FA681A603B689A687B68DA629A
:103850003B681A687B689A627B68074A934203D187
:103860003B681A697B681A637B6801225A6100BF52
:103870001437BD4680BC7047002C01400004004056
:103880000008004080B487B000AF786039607B6882
:103890001B6A23F001027B681A627B681B6A7B61EA
:1038A0007B685B683B617B689B69FB60FB6823F01E
:1038B0007003FB60FB6823F00303FB603B681B683D
:1038C000FA681343FB607B6923F002037B613B686A
:1038D0009B687A6913437B617B681C4A93420CD1D5
:1038E0007B6923F008037B613B68DB687A691343DB
:1038F0007B617B6923F004037B617B68134A9342FD
:1039000011D13B6923F480733B613B6923F400735D
:103910003B613B685B693A6913433B613B689B6968
:103920003A6913433B617B683A695A607B68FA687D
:103930009A613B685A687B685A637B687A691A6245
:1039400000BF1C37BD4680BC704700BF002C014043
:1039500080B487B000AF786039607B681B6A23F061
:1039600010027B681A627B681B6A7B617B685B68FC
:103970003B617B689B69FB60FB6823F4E043FB6071
:10398000FB6823F44073FB603B681B681B02FA680A
:103990001343FB607B6923F020037B613B689B68DA
:1039A0001B017A6913437B617B681D4A93420DD1E9
:1039B0007B6923F080037B613B68DB681B017A69CC
:1039C00013437B617B6923F040037B617B68144A6E
:1039D000934213D13B6923F480633B613B6923F439
:1039E00000633B613B685B699B003A6913433B6141
:1039F0003B689B699B003A6913433B617B683A696A
:103A00005A607B68FA689A613B685A687B689A6377
:103A10007B687A691A6200BF1C37BD4680BC70475C
:103A2000002C014080B487B000AF786039607B68BB
:103A30001B6A23F480727B681A627B681B6A7B6155
:103A40007B685B683B617B68DB69FB60FB6823F03C
:103A50007003FB60FB6823F00303FB603B681B689B
:103A6000FA681343FB607B6923F400737B613B6856
:103A70009B681B027A6913437B617B681D4A9342F2
:103A80000DD17B6923F400637B613B68DB681B021B
:103A90007A6913437B617B6923F480637B617B6874
:103AA000144A934213D13B6923F480533B613B6931
:103AB00023F400533B613B685B691B013A69134384
:103AC0003B613B689B691B013A6913433B617B681F
:103AD0003A695A607B68FA68DA613B685A687B68C1
:103AE000DA637B687A691A6200BF1C37BD4680BC06
:103AF000704700BF002C014080B487B000AF7860F1
:103B000039607B681B6A23F480527B681A627B6889
:103B10001B6A3B617B685B687B617B68DB69FB6080
:103B2000FB6823F4E043FB60FB6823F44073FB6015
:103B30003B681B681B02FA681343FB603B6923F474
:103B400000533B613B689B681B033A6913433B612D
:103B50007B680F4A934209D17B6923F480437B61E0
:103B60003B685B699B017A6913437B617B687A6977
:103B70005A607B68FA68DA613B685A687B681A6445
:103B80007B683A691A6200BF1C37BD4680BC70472B
:103B9000002C014080B487B000AFF860B9607A6053
:103BA000FB681B6A7B61FB681B6A23F00102FB68F0
:103BB0001A62FB689B693B613B6923F0F0033B6140
:103BC0007B681B013A6913433B617B6923F00A035D
:103BD0007B617A69BB6813437B61FB683A699A61D0
:103BE000FB687A691A6200BF1C37BD4680BC70470B
:103BF00080B487B000AFF860B9607A60FB681B6A78
:103C000023F01002FB681A62FB689B697B61FB680A
:103C10001B6A3B617B6923F470437B617B681B03F8
:103C20007A6913437B613B6923F0A0033B61BB6866
:103C30001B013A6913433B61FB687A699A61FB682F
:103C40003A691A6200BF1C37BD4680BC704780B419
:103C500085B000AF786039607B689B68FB60FB686B
:103C600023F07003FB603A68FB68134343F00703DB
:103C7000FB607B68FA689A6000BF1437BD4680BC61
:103C8000704780B487B000AFF860B9607A603B607D
:103C9000FB689B687B617B6923F47F437B613B68A6
:103CA0001A027B681A43BB6813437A6913437B612A
:103CB000FB687A699A6000BF1C37BD4680BC7047BC
:103CC00080B487B000AFF860B9607A60BB6803F079
:103CD0001F03012202FA03F37B61FB681A6A7B6906
:103CE000DB431A40FB681A62FB681A6ABB6803F080
:103CF0001F03796801FA03F31A43FB681A6200BFD5
:103D00001C37BD4680BC704780B485B000AF78607A
:103D100039607B6893F83C30012B01D1022346E0E7
:103D20007B68012283F83C207B68022283F83D20D7
:103D30007B681B685B68FB607B681B689B68BB607B
:103D4000FB6823F07003FB603B681B68FA68134351
:103D5000FB607B681B68FA685A607B681B68164AC0
:103D600093420ED07B681B68B3F1804F09D07B680B
:103D70001B68124A934204D07B681B68104A934226
:103D80000CD1BB6823F08003BB603B685B68BA68FA
:103D90001343BB607B681B68BA689A607B6801222A
:103DA00083F83D207B68002283F83C2000231846DE
:103DB0001437BD4680BC7047002C01400004004011
:103DC0000008004080B582B000AF78607B68002BAF
:103DD00001D101233FE07B6893F83D30DBB2002B3B
:103DE00006D17B68002283F83C207868FDF732FC1E
:103DF0007B68242283F83D207B681B687A68126800
:103E0000D26822F40052DA60786800F0ABFB7B687D
:103E10001B687A681268126922F490421A617B6802
:103E20001B687A681268526922F02A025A617B681C
:103E30001B687A681268D26842F40052DA607B68C4
:103E400000221A647B68202283F83D207B682022B0
:103E500083F83E20002318460837BD4680BD80B554
:103E600084B000AFF860B9601346FB80FB6893F83C
:103E70003E30DBB2202B1DD1BB68002B02D0FB886B
:103E8000002B01D1012316E0FB6893F83C30012B95
:103E900001D102230FE0FB68012283F83C20FB687C
:103EA00000221A63FB881A46B968F86800F0D1F955
:103EB000034600E0022318461037BD4680BD0000CF
:103EC00080B58AB000AF78607B681B681B687B6236
:103ED0007B681B68DB683B627B681B685B69FB6116
:103EE0000023BB6100237B617B6A03F00F03BB618E
:103EF000BB69002B0DD17B6A03F02003002B08D097
:103F00003B6A03F02003002B03D0786800F080FAAE
:103F10007CE1BB69002B00F0B180FB6903F0010379
:103F2000002B05D13B6A03F49073002B00F0A680B0
:103F30007B6A03F00103002B0AD03B6A03F4807311
:103F4000002B05D07B681B6C43F001027B681A6470
:103F50007B6A03F00403002B0AD0FB6903F0010322
:103F6000002B05D07B681B6C43F002027B681A644F
:103F70007B6A03F00203002B0AD0FB6903F0010304
:103F8000002B05D07B681B6C43F004027B681A642D
:103F90007B6A03F00803002B0FD03B6A03F0200379
:103FA000002B04D1FB6903F00103002B05D07B68D3
:103FB0001B6C43F008027B681A647B681B6C002B47
:103FC00000F01F817B6A03F02003002B07D03B6ABF
:103FD00003F02003002B02D0786800F019FA7B6808
:103FE0001B685B6903F04003002B14BF012300230F
:103FF000DBB27B617B681B6C03F00803002B02D1F2
:104000007B69002B31D0786800F05CF97B681B6815
:104010005B6903F04003002B23D07B681B687A6840
:104020001268526922F040025A617B689B6B002B38
:1040300013D07B689B6B774A5A637B689B6B1846EF
:10404000FDF726FD0346002B16D07B689B6B5B6B50
:104050007A68926B104698470EE0786800F0E5F8B1
:104060000AE0786800F0E1F806E0786800F0DDF832
:104070007B6800221A64C4E000BFC2E07B681B6B4F
:10408000012B40F0A1807B6A03F01003002B00F0AD
:104090009B803B6A03F01003002B00F09580002307
:1040A000FB607B681B681B68FB607B681B685B6848
:1040B000FB60FB687B681B685B6903F04003002BB7
:1040C0004ED07B689B6B1B685B687B827B8A002B76
:1040D00000F099807B689B8D7A8A9A4280F0938069
:1040E0007B687A8ADA857B689B6B9B69202B2BD057
:1040F0007B681B687A681268D26822F48072DA6082
:104100007B681B687A681268526922F001025A6162
:104110007B681B687A681268526922F040025A6113
:104120007B68202283F83E207B6800221A637B682C
:104130001B687A681268D26822F01002DA607B6825
:104140009B6B1846FDF769FC7B689A8D7B68DB8D5D
:104150009BB2D31A9BB21946786800F06FF852E010
:104160007B689A8D7B68DB8D9BB2D31A3B827B6820
:10417000DB8D9BB2002B48D03B8A002B45D07B685F
:104180001B687A681268D26822F49072DA607B68E1
:104190001B687A681268526922F001025A617B68D2
:1041A000202283F83E207B6800221A637B681B680C
:1041B0007A681268D26822F01002DA603B8A1946E7
:1041C000786800F03BF820E07B6A03F08003002B66
:1041D00008D03B6A03F08003002B03D0786800F01E
:1041E000B1F813E07B6A03F04003002B0ED03B6A6A
:1041F00003F04003002B09D0786800F0F1F800BF0D
:1042000004E000BF02E000BF00E000BF2837BD4669
:1042100080BD00BF1D43000880B483B000AF78604C
:1042200000BF0C37BD4680BC704780B483B000AF80
:10423000786000BF0C37BD4680BC704780B483B047
:1042400000AF78600B467B8000BF0C37BD4680BC5A
:10425000704780B485B000AFF860B9601346FB804A
:10426000FB68BA689A62FB68FA889A85FB68FA88E4
:10427000DA85FB6800221A64FB68222283F83E205C
:10428000FB68002283F83C20FB681B68FA68126810
:10429000D26842F48072DA60FB681B68FA681268C0
:1042A000526942F001025A61FB681B68FA681268A1
:1042B000D26842F02002DA60002318461437BD4667
:1042C00080BC704780B483B000AF78607B681B68A7
:1042D0007A681268D26822F49072DA607B681B6890
:1042E0007A681268526922F001025A617B681B6B7E
:1042F000012B07D17B681B687A681268D26822F0AC
:104300001002DA607B68202283F83E207B6800225E
:104310001A6300BF0C37BD4680BC704780B584B0BF
:1043200000AF78607B685B6AFB60FB680022DA851F
:10433000FB680022DA84F868FFF777FF00BF1037C8
:10434000BD4680BD80B485B000AF78607B6893F8CF
:104350003D30DBB2212B3DD17B689B68B3F5805F9C
:1043600013D17B681B69002B0FD17B681B6AFB6034
:104370007B681B68FA681288C2F308025A607B687F
:104380001B6A9A1C7B681A6208E07B681A687B6863
:104390001B6A581C796808621B7853607B68DB8C49
:1043A0009BB2013B9BB27A681946D184002B0FD196
:1043B0007B681B687A681268D26822F08002DA6033
:1043C0007B681B687A681268D26842F04002DA6043
:1043D000002300E0022318461437BD4680BC704716
:1043E00080B582B000AF78607B681B687A6812681D
:1043F000D26822F04002DA607B68202283F83D20F8
:104400007868FFF709FF002318460837BD4680BDCE
:1044100080B586B000AF78607B6893F83E30DBB241
:10442000222B40F099807B689B68B3F5805F17D1A1
:104430007B681B69002B13D100237B617B689B6A1F
:104440003B617B681B685B689BB2C3F308039AB24D
:104450003B691A807B689B6A9A1C7B689A6226E09B
:104460007B689B6A7B6100233B617B689B68B3F53B
:10447000805F07D07B689B68002B0AD17B681B6933
:10448000002B06D17B681B685B68DAB27B691A7007
:1044900008E07B681B685B68DBB203F07F03DAB27D
:1044A0007B691A707B689B6A5A1C7B689A627B687E
:1044B000DB8D9BB2013B9BB27A681946D185002BFC
:1044C00048D17B681B687A681268D26822F02002A3
:1044D000DA607B681B687A681268D26822F480729E
:1044E000DA607B681B687A681268526922F0010200
:1044F0005A617B68202283F83E207B681B6B012B6E
:1045000023D17B6800221A637B681B687A68126873
:10451000D26822F01002DA607B681B681B6803F027
:104520001003102B0AD10023FB607B681B681B68FB
:10453000FB607B681B685B68FB60FB687B689B8D2E
:1045400019467868FFF77AFE02E07868FCF7F3FB1B
:10455000002302E0002300E0022318461837BD467E
:1045600080BD000090B585B000AF78607B681B68A7
:104570007A681268126922F440517A68D2680A4354
:104580001A617B689A687B681B691A437B685B6960
:104590001343BB607B681A687B681B68DB6823F485
:1045A000B05323F00C03B9680B43D3607B681B68DE
:1045B0007A681268526922F440717A6892690A43F3
:1045C0005A617B681B682C4A934203D1FEF7BCFDFD
:1045D000F86002E0FEF7A4FDF8607B681968FA68ED
:1045E00013469B0013449A001A447B685B689B0047
:1045F000B2FBF3F3214AA2FB03235B091801FA681B
:1046000013469B0013449A001A447B685B689B0026
:10461000B2FBF3F2194BA3FB02435B09642404FBD6
:1046200003F3D31A1B013233144AA2FB03235B09A1
:1046300003F0F0031844FA6813469B0013449A00F1
:104640001A447B685B689B00B2FBF3F20B4BA3FB45
:1046500002435B09642404FB03F3D31A1B013233C6
:10466000064AA2FB03235B0903F00F0303448B609C
:1046700000BF1437BD4690BD003801401F85EB5187
:104680000C480D490D4A002302E0D458C4500433AD
:10469000C4188C42F9D30A4A0A4C002301E0136083
:1046A0000432A242FBD3FCF781FE00F015F8FCF7C0
:1046B000FFF970470000002080000020D47000083F
:1046C00080000020FC050020FEE70000014B186878
:1046D000704700BF1C00002070B500250C4E0D4C2B
:1046E000A41BA410A54209D100F04EFC00250A4EDF
:1046F0000A4CA41BA410A54205D170BD56F8253064
:1047000098470135EEE756F8253098470135F2E72E
:10471000CC700008CC700008CC700008D070000885
:1047200003460244934200D1704703F8011BF9E7A6
:104730000EB44FF4027100B59CB0ADF814106FF0D8
:104740000041049107914FF6FF711DAB0290069056
:10475000084853F8042BADF81610006802A901931D
:1047600000F066F80022029B1A701CB05DF804EBA2
:1047700003B070471C0000202DE9F0478E68824688
:104780009E420C469146984635D88A8912F4906F1D
:1047900031D00223256809696F1A656905EB450563
:1047A00095FBF3F508F101033B449D4238BF1D46DC
:1047B000530531D5294600F047FB064650B90C2376
:1047C000CAF80030A3894FF0FF3043F04003A381C3
:1047D000BDE8F0873A46216900F0C4FAA38923F4C2
:1047E000906343F08003A38126613E4426604646E1
:1047F0006561ED1BA560464528BF464649463246E1
:10480000206800F0BAFAA36800209B1BA36023680D
:104810001E442660BDE8F0872A4600F073FB06467A
:104820000028E1D12169504600F0C2FAC7E7000034
:104830002DE9F04F9DB003938B8980461C060D46F1
:1048400016460FD50B696BB9402100F0FDFA2860C0
:10485000286128B90C23C8F800304FF0FF30C4E0BD
:1048600040236B610023099320238DF829303023E6
:104870004FF0010B8DF82A3037463C4614F8013BC7
:10488000002B3CD1B7EB060A0BD0534632462946E3
:104890004046FFF771FF013000F0A280099B5344AE
:1048A00009933B78002B00F09B8000234FF0FF32F0
:1048B00004930793059206938DF853301A930522BB
:1048C0002178504800F040FA671C049BD8B9D906FB
:1048D00044BF20228DF853201A0744BF2B228DF8A5
:1048E000532022782A2A16D000210A20079A274628
:1048F0003B780134303B092B50D9C9B111E0252B4D
:10490000C0D02746B9E73F4A3C46801A0BFA00F070
:1049100018430490D3E7039A111D12680391002AEB
:1049200001DB079204E0524243F002030792049332
:104930003B782E2B0DD17B78791C2A2B32D1039B0F
:1049400002371A1D1B680392002BB8BF4FF0FF33CC
:1049500005932D4C03223978204600F0F5F938B143
:104960004023001B03FA00F0049B01370343049328
:104970003978062225487E1C8DF8281000F0E4F9CD
:10498000002835D0224BFBB9039B073323F00703E4
:1049900008330393099B4B4409936DE700FB0232F4
:1049A0000121A4E700230A24184605930F463A780C
:1049B0000131303A092A03D9002BCAD00590C8E743
:1049C00004FB00200123F1E703AB00932A46114BBF
:1049D00004A94046AFF30080B0F1FF3F8146D9D132
:1049E000AB895B063FF539AF09981DB0BDE8F08F84
:1049F00003AB00932A46074B04A9404600F084F815
:104A0000EAE700BF987000089E700008A2700008D6
:104A100000000000794700082DE9F04791461F4645
:104A20008A680B6906469342B8BF1346C9F800303E
:104A300091F843200C46DDF8208012B10133C9F80B
:104A400000302368990642BFD9F800300233C9F814
:104A50000030256815F0060507D104F1190AE3684E
:104A6000D9F800209B1A9D422ADB94F84330226833
:104A7000003318BF012392062FD404F143023946B4
:104A80003046C047013022D02368E56803F00603B2
:104A9000042B18BF0025D9F800204FF0000908BFEB
:104AA000AD1AA368226908BF25EAE5759342C4BF21
:104AB0009B1AED181A344D451BD10020BDE8F08734
:104AC0000123524639463046C047013003D14FF0EA
:104AD000FF30BDE8F0870135C1E73020E11881F8EB
:104AE00043005A1C94F845102244023382F84310C4
:104AF000C3E70123224639463046C0470130E6D09D
:104B000009F10109D7E700002DE9F04317460A7EB5
:104B100085B06E2A984606460C460C9B01F1430E62
:104B200000F0BC801AD8632A2ED00AD8002A00F0E0
:104B3000C880582A00F08A8004F1420584F8422097
:104B40002AE0642A01D0692AF6D121681A6811F096
:104B5000800F23D0111D1960136827E0732A00F01D
:104B6000B48008D86F2A2AD0702AE5D10A6842F0AA
:104B700020020A6003E0752A21D0782ADCD178224D
:104B80006F4984F8452064E01A6801F14205111D5F
:104B90001960136884F842300123A3E011F0400F3C
:104BA00002F104011960D7D0B2F90030002B03DA0A
:104BB0002D225B4284F8432062490A2217E02068D4
:104BC000196810F0800F03D0081D18600B6806E00C
:104BD00010F0400F01F104001860F7D00B886F2A25
:104BE00014BF0A2208225749002084F84300656850
:104BF000002DA560C0F29C80206820F00400206099
:104C0000002B3FD1002D40F095807546082A0BD12E
:104C10002368DA0708D5236962689A42DEBF302329
:104C200005F8013C05F1FF35AEEB05032361CDF836
:104C300000803B4603AA21463046FFF7EDFE0130D7
:104C400055D14FF0FF3005B0BDE8F08381F8452025
:104C50003C492268186812F0800F00F104051D60BD
:104C600001D0036802E05506FBD50388D00744BF96
:104C700042F0200222601BB9226822F0200222604A
:104C80001022B1E77546B3FBF2F002FB1033CB5CA8
:104C900005F8013D03460028F5D1B7E708681A6812
:104CA00010F0800F496904D0101D18601368196056
:104CB00007E010F0400F02F1040018601368F6D00E
:104CC0001980002375462361B1E71A68111D196028
:104CD000156800216268284600F036F808B1401BCC
:104CE000606063682361002384F843309FE7236991
:104CF0002A4639463046C0470130A2D023689B0778
:104D000007D5002504F11909E368039A9B1A9D420F
:104D100005DBE068039B9842B8BF184693E7012380
:104D20004A4639463046C04701308AD00135EBE764
:104D3000002BA7D10B7804F1420584F8423065E7D7
:104D4000BA700008A970000810B5C9B202449042B8
:104D5000034601D1002010BD1C7801308C42F6D1F1
:104D6000184610BD10B5431E0A44914200D110BD33
:104D700011F8014B03F8014FF7E7884210B501EB3A
:104D8000020303D8421E99420CD110BD9842F9D2B9
:104D90008118D21AD34200D110BD13F8014D01F889
:104DA000014DF7E711F8014B02F8014FEBE7000066
:104DB00038B50546002943D051F8043C0C1F002BA0
:104DC000B8BFE41800F0D4F81E4A1368104633B98F
:104DD000636014602846BDE8384000F0CAB8A342BA
:104DE0000BD921686218934201BF1A685B68521898
:104DF000226063600460EDE713465A680AB1A2427C
:104E0000FAD919685818A0420BD1206801445818E3
:104E100082421960DED110685268014419605A60FC
:104E2000D8E702D90C232B60D4E7206821188A42E6
:104E300001BF116852680918216062605C60C9E7AF
:104E400038BD00BFB004002070B5CD1C25F00305AF
:104E500008350C2D38BF0C25002D064601DBA94274
:104E600003D90C233360002070BD00F081F8234A81
:104E70001468214691B9224C23681BB9304600F0D2
:104E800067F820602946304600F062F8431C26D1BE
:104E90000C233046336000F06CF8E4E70B685B1BD2
:104EA0001AD40B2B0FD90B60CC18CD50304600F024
:104EB00060F804F10B00231D20F00700C31A1BD07B
:104EC0005A42E25070BD8C420BBF63684B6813605E
:104ED000636018BF0C46E9E70C464968CAE7C41C82
:104EE00024F00304A04205D0211A304600F030F827
:104EF0000130CDD02560D9E770BD00BFB0040020DF
:104F0000B4040020F8B5074614460E4621B91146F0
:104F1000BDE8F840FFF798BF22B9FFF749FF2546E3
:104F20002846F8BD00F026F884420FD921463846BD
:104F3000FFF78AFF05460028F2D031462246FFF7E8
:104F400011FF31463846FFF733FFE9E73546E7E71B
:104F500038B50023054C054608462360FCF7FAF9EE
:104F6000431C02D1236803B12B6038BDF805002033
:104F70007047704751F8040C0028A0F10400BCBF32
:104F80000B58C01870470000F8B500BFF8BC08BC4B
:104F90009E467047F8B500BFF8BC08BC9E467047F7
:104FA00044697374616E63653A00000025642020D3
:104FB0002020000044697374616E63653A202564A3
:104FC0000A0D000002030405060708090A0B0C0D70
:104FD0000E0F101001020000000000000000000091
:104FE00000000000000000000000000000000000C1
:104FF0000000000000000000000000000000000CA5
:10500000000C000C000C000C000C000C000C000C40
:10501000000C000C0000000C000C00000000000060
:105020000000001B001B001B001B001B00000000F9
:105030000000000000000000000000000000000070
:105040000000000000008019801980198019C07FBD
:10505000C07F80190033C07FC07F0033003300332E
:1050600000330000000000000000001E003F8075BB
:1050700080650074003C001E000780058065806527
:105080008075003F001E0004000400000000007056
:1050900000D840D8C0D880D900730006000C801B0F
:1050A000C036C066C046C006800300000000000095
:1050B0000000001E003F003300330033001E000CD0
:1050C000C03CC066806380618063C03E801C00007D
:1050D000000000000000000C000C000C000C000C94
:1050E00000000000000000000000000000000000C0
:1050F0000000000000000000800000010003000626
:1051000000060004000C000C000C000C000C000C4D
:1051100000040006000600030001800000200010CB
:105120000018000C000C0004000600060006000633
:10513000000600060004000C000C001800100020FF
:105140000000000C002D003F001E00330000000096
:10515000000000000000000000000000000000004F
:1051600000000000000000000000000C000C000C1B
:10517000000CC0FFC0FF000C000C000C000C000075
:10518000000000000000000000000000000000001F
:10519000000000000000000000000000000000000F
:1051A0000000000C000C00040004000800000000D7
:1051B0000000000000000000000000000000001ED1
:1051C000001E0000000000000000000000000000C1
:1051D00000000000000000000000000000000000CF
:1051E00000000000000000000000000C000C0000A7
:1051F000000000000000000300030003000600069A
:1052000000060006000C000C000C000C0018001832
:1052100000180000000000000000001E003F0033E6
:10522000806180618061806D806D8061806180615E
:105230000033003F001E00000000000000000006D8
:10524000000E001E003600260006000600060006BE
:105250000006000600060006000600000000000030
:105260000000001E003F80738061806180010003A8
:105270000006000C001800300060807F807F000076
:10528000000000000000001C003E006300630003FB
:10529000000E000E00038001800180618073003FDA
:1052A000001E00000000000000000006000E000EBE
:1052B000001E001E0016003600360066807F807FCC
:1052C0000006000600060000000000000000007F4D
:1052D000007F006000600060006E007F80638001DE
:1052E000800180618073003F001E0000000000000C
:1052F0000000001E003F803380610060006E007F70
:1053000080738061806180618033003F001E0000F7
:10531000000000000000807F807F80010003000308
:1053200000060006000C000C000C00080018001815
:1053300000180000000000000000001E003F806315
:10534000806180610021001E003F8061806180617A
:105350008061003F001E0000000000000000001EF1
:10536000003F00738061806180618073803F801D99
:10537000800180610073003F001E000000000000FB
:1053800000000000000000000000000C000C000005
:1053900000000000000000000000000C000C0000F5
:1053A00000000000000000000000000000000000FD
:1053B000000C000C00000000000000000000000CC9
:1053C000000C0004000400080000000000000000C1
:1053D00080008003000E003800600038000E80035B
:1053E000800000000000000000000000000000003D
:1053F000000000000000807F807F00000000807FB0
:10540000807F00000000000000000000000000009D
:10541000000000000000000000400070001C0007B9
:1054200080010007001C0070004000000000000028
:10543000000000000000001F803FC071C060C0007D
:10544000C00180030007000E000C000C0000000CDF
:10545000000C0000000000000000001E003F803132
:1054600080718063806F806D806D806F8067006069
:105470000032003E001C0000000000000000000E92
:10548000000E001B001B001B001B80318031803F81
:10549000803F8031C060C060C0600000000000003C
:1054A0000000007C007E0063006300630063007EF8
:1054B000007E0063806180618063007F007E000069
:1054C000000000000000001E003F8031806100608D
:1054D0000060006000600060006080618031003F1B
:1054E000001E0000000000000000007C007F006340
:1054F0008063806180618061806180618061006320
:105500000063007E007C0000000000000000807F3F
:10551000807F0060006000600060007F007F0060AE
:10552000006000600060807F807F0000000000005D
:105530000000807F807F0060006000600060007F6E
:10554000007F00600060006000600060006000009C
:10555000000000000000001E003F803180610060FC
:105560000060006080638063806180618031803F83
:10557000001E00000000000000008061806180616A
:10558000806180618061807F807F806180618061D7
:105590008061806180610000000000000000003F29
:1055A000003F000C000C000C000C000C000C000C68
:1055B000000C000C000C003F003F00000000000049
:1055C0000000800180018001800180018001800154
:1055D00080018001806180618073003F001E0000B7
:1055E000000000000000C06080610063006600668B
:1055F000006C0078007C006600660063806180615A
:10560000C06000000000000000000060006000605A
:10561000006000600060006000600060006000608A
:105620000060807F807F0000000000000000C071EB
:10563000C071C07BC07AC06AC06AC06EC064C060FE
:10564000C060C060C060C060C060000000000000BA
:10565000000080718071807980798079806D806DA3
:10566000806D8065806780678067806380630000ED
:10567000000000000000001E003F003380618061D8
:105680008061806180618061806180610033003F62
:10569000001E0000000000000000007E007F80630C
:1056A0008061806180618063007F007E00600060B7
:1056B0000060006000600000000000000000001EAC
:1056C000003F003380618061806180618061806122
:1056D000806580670033803F401E000000000000AE
:1056E0000000007E007F8063806180618063007FB6
:1056F000007E00660063006380618061C06000001E
:10570000000000000000000E001F803180310030DA
:105710000038001E00078003806180618031003FF7
:10572000001E0000000000000000C0FFC0FF000CD1
:10573000000C000C000C000C000C000C000C000C09
:10574000000C000C000C0000000000000000806154
:105750008061806180618061806180618061806141
:10576000806180618073003F001E00000000000027
:105770000000C060C060C060803180318031001B9B
:10578000001B001B001B000E000E000E000400009A
:10579000000000000000C0C0C0C0C0C0C0C0C0C089
:1057A000C0CC804C804C805E80528052807380617F
:1057B00080610000000000000000C0C080608061C7
:1057C0000033003B001E000C000C001E001F003BBD
:1057D00080718061C0C00000000000000000C0C0F7
:1057E0008061806100330033001E001E000C000C3D
:1057F000000C000C000C000C000C0000000000006D
:105800000000803F803F8001000300030006000C81
:10581000000C0018001800300060807F807F0000BE
:1058200000000000000F000F000C000C000C000C2A
:10583000000C000C000C000C000C000C000C000C08
:10584000000C000C000F000F0000001800180018DA
:10585000000C000C000C000C000600060006000600
:10586000000300030003000000000000001E001EF3
:1058700000060006000600060006000600060006F8
:10588000000600060006000600060006001E001EB8
:105890000000000C000C001E001200330033806179
:1058A0008061000000000000000000000000000017
:1058B00000000000000000000000000000000000E8
:1058C00000000000000000000000000000000000D8
:1058D00000000000E0FF0000000000380018000C8D
:1058E00000000000000000000000000000000000B8
:1058F00000000000000000000000000000000000A8
:10590000000000000000001F803F80618001801FB8
:10591000803F80618063807FC0380000000000000D
:1059200000000060006000600060006E007F807317
:1059300080618061806180618073007F006E000003
:105940000000000000000000000000000000001E39
:10595000003F807380610060006080618073003F61
:10596000001E000000000000000080018001800196
:105970008001801D803F80738061806180618061D3
:105980008073803F801D00000000000000000000C8
:10599000000000000000001E003F00738061807F57
:1059A000807F00608071003F001E0000000000004A
:1059B0000000C007C00F000C000C807F807F000C2F
:1059C000000C000C000C000C000C000C000C000083
:1059D000000000000000000000000000801D803F6B
:1059E000807380618061806180618073803F801DF1
:1059F00080018063007F003E000000600060006066
:105A00000060006F807F8071806180618061806153
:105A100080618061806100000000000000000006DD
:105A2000000600000000003E003E000600060006E2
:105A30000006000600060006000600000000000048
:105A40000006000600000000003E003E00060006C2
:105A500000060006000600060006000600060046D6
:105A6000007E003C0000006000600060006080611B
:105A700000630066006C007C007600630063806158
:105A8000C0600000000000000000003E003E000674
:105A900000060006000600060006000600060006D6
:105AA00000060006000600000000000000000000E4
:105AB00000000000000080DDC0FFC0CEC0CCC0CC24
:105AC000C0CCC0CCC0CCC0CCC0CC0000000000001A
:105AD00000000000000000000000006F807F807167
